:100000000C9488000C94B0000C94B0000C94B000D8
:100010000C94B0000C94B0000C94B0000C94B000A0
:100020000C94B0000C94B0000C94EB0B0C94810A6F
:100030000C94B0000C94B0000C94B0000C94B00080
:100040000C94B0000C94B0000C94B0000C94B00070
:100050000C94B0000C94B0000C94B0000C94D90532
:100060000C94B0000C94B0000C94B0000C94B00050
:100070000C94B0000C94B0000C94B0000C94B00040
:100080000C94B0000C94B0000C94B0000C94B00030
:100090000C94B0000C94B000AC0197019A019D0142
:1000A000A001A301A601A9010904000001020200A8
:1000B00000052400100105240101010424020605A5
:1000C0002406000107058103100040090401000215
:1000D0000A000000070502024000000705830240F5
:1000E00000001201000202000010D01657050001A6
:1000F000010203014D6174746169725465636800A3
:100100004D542D44422D5536000403090400A50723
:1001100011241FBECFEFD0E1DEBFCDBF11E0A0E0C4
:10012000B1E0ECE9FAE102C005900D92A038B10708
:10013000D9F722E0A0E8B1E001C01D92AC38B207C7
:10014000E1F711E0C0E1D1E004C02297FE010E9476
:100150002D0DCE30D107C9F70E947C0C0C944C0DAC
:100160000C9400006115710581F0DB010D900020F9
:10017000E9F7AD0141505109461B570BDC01ED91E8
:10018000FC910280F381E02D099480E090E00895D5
:10019000DC01ED91FC910280F381E02D099485B999
:1001A000892F977F9BB983FF02C0109A01C01098D6
:1001B00081E090E00C947A06CF930E94CF00169ACB
:1001C000139A129881E090E00E947A06C6B1169ABE
:1001D000139A129A81E090E00E947A068C2FCF91B8
:1001E0000895CF930E94CF00169A1398129881E039
:1001F00090E00E947A06C6B1169A139A129A81E08C
:1002000090E00E947A068C2FCF910895CF93DF93D0
:100210001F92CDB7DEB769830E94CF00698168B9AC
:100220001698139A129A81E090E00E947A06169A24
:10023000139A129A81E090E00F90DF91CF910C9485
:100240007A06682F8FEF87B92091F2013091F30180
:10025000243031053CF4223031053CF421303105A5
:1002600021F007C02530310521F480E091E20E94A1
:10027000060117B808952091EA013091EB01223070
:100280003105A8F09FEF97B92091F2013091F30169
:100290002330310531F02530310519F02130310599
:1002A00029F4682F80E090E40E94060117B80895B1
:1002B0008FEF87B96AE080E090E00E9406018AE053
:1002C00090E00E947A0617B808958FEF87B960E032
:1002D00080E090E00E94060162E370E080E090E040
:1002E0000E94520617B808950F931F93CF93DF9380
:1002F00006E012E0C4E3D1E0CE010E94DC00F80188
:1003000081938F012196C334F1E0DF07A9F7DF91D4
:10031000CF911F910F9108958091EF0190E0883067
:100320009105D0F4FC01E45BFF4F0C942B0D84E0AD
:1003300090E014C088E090E011C080E190E00EC031
:1003400080E290E00BC080E490E008C080E890E09C
:1003500005C080E091E002C082E090E09093ED0162
:100360008093EC0108958091EE01823069F028F4C9
:100370008823A1F0813041F011C0833041F08430F6
:1003800069F480E190E005C081E090E002C084E083
:1003900090E09093EB018093EA0108951092EB01B5
:1003A0001092EA01089587E491E00E94DC008093B6
:1003B000F401843180F48F3058F5873038F485307B
:1003C00020F58823D1F08430E8F025C0883018F17A
:1003D0008A3098F020C0873548F48535E0F48F31B5
:1003E000D0F48931C0F025E030E017C08F3F50F4E1
:1003F0008D3F88F48C3F61F00EC01092F301109293
:10040000F2010FC021E030E008C022E030E005C07A
:1004100023E030E002C02FEF3FEF3093F301209351
:10042000F20191EF980F8331E9F070F48930D1F047
:1004300028F48330B9F08630C9F414C08D3091F0BF
:10044000A8F0923098F40EC08E3161F028F4873114
:1004500049F08B3159F406C08D3F21F08F3F11F0E8
:10046000823221F421E02093E70102C01092E701DB
:10047000923020F491E09093E90102C01092E901DA
:100480008C51833020F481E08093E801089510922C
:10049000E80108950E9474010E94D30183E491E071
:1004A0000E94DC00803831F091E0803C09F090E05F
:1004B000892F01C081E08093F10186E491E00E94E0
:1004C000DC0091E0833009F090E09093F00188E443
:1004D00091E00E94DC008093EF0189E491E00E94AA
:1004E000DC008093EE010E948C010E94B3018CE439
:1004F00091E00E94DC008093F50108950F931F9313
:10050000CF93DF93C4E3D1E000E010E0CE010E947E
:10051000DC00080F111D2196CE3481E0D807B1F719
:1005200081E0073E09F080E0DF91CF911F910F91AC
:1005300008958FEF84B987EF8AB917B88DE681B92E
:1005400080E282B915B81BB80895CF92DF92EF927E
:10055000FF92CF93DF936C018EB1C1E0D0E001C078
:10056000CC0F6A95EAF78C2B8EB9EE24D7FCE09479
:10057000FE2CC701B6010E9452068EB1C095C82359
:10058000CEB9C701B601DF91CF91FF90EF90DF9018
:10059000CF900C945206CF92DF92EF92FF920F937E
:1005A0001F93E091E101F091E201DC010D911D91B9
:1005B0002D913C9113970E1B1F0B21093109FB0153
:1005C000C080D180E280F3800C151D052E053F050B
:1005D00080F05EB121E030E0042E01C0220F0A94C9
:1005E000EAF752275EB98D919C919093E201809336
:1005F000E1011F910F91FF90EF90DF90CF90089550
:1006000040E855E260E070E08FE192E00E949007E0
:100610008BEB8DB90E9499028FE192E00E949607C0
:100620008823D1F38CE682B964EF71E080E090E03A
:100630000E94520642E050E06AE571E08FE192E0EC
:100640000E94C8006AE070E080E090E00C945206DE
:10065000CF92DF92EF92FF920F931F93CF93DF938E
:1006600000D000D0CDB7DEB7009731F00E94210155
:10067000E12C80E4F82E02C0E12CF12C00E010E027
:10068000D12CC8018E0D9F1D0E94DC00C82E0E9437
:1006900023067093E4016093E301DC01CB01AA27F8
:1006A000BB2789839A83AB83BC8346E06BE671E00A
:1006B000CE0101960E94CB02ED2DF0E0EF55FE4FEA
:1006C000C082D3948FE38D1548F440E450E061EA92
:1006D00071E08FE192E00E941C07D12C0F5F1F4F49
:1006E000011580E4180769F60F900F900F900F9096
:1006F000DF91CF911F910F91FF90EF90DF90CF90FE
:100700000895CF93DF9364E671E08FE192E00E9459
:10071000B2006CE370E080E090E00E945206C0E01E
:10072000D0E08091EC019091ED01C817D90728F431
:10073000CE010E9428032196F4CFDF91CF91089536
:10074000BF92CF92DF92EF92FF920F931F93CF93BE
:10075000DF9300D000D0CDB7DEB72091F201309109
:10076000F3012230310521F0C12C30ECD32E03C02F
:10077000C12C22EAD22E0E943B01E12C90EAF92EF4
:1007800000E010E0C7010E94F100B82E0E9423068D
:100790007093E4016093E301DC01CB01AA27BB273E
:1007A00089839A83AB83BC8346E06BE671E0CE011C
:1007B00001960E94CB02F801EF57FE4FB0820F5F07
:1007C0001F4F0032110554F040E250E061E871E043
:1007D0008FE192E00E941C0700E010E08FEFE81A22
:1007E000F80AEC14FD0470F20F900F900F900F9028
:1007F000DF91CF911F910F91FF90EF90DF90CF90FD
:10080000BF9008950F931F93CF93DF938091E701DB
:10081000882371F160E671E08FE192E00E94B200FE
:100820000E9458016CE370E080E090E00E94520664
:100830003091EA012091EB018091F2019091F30156
:10084000029719F0C32FD22F02C0C1E0D0E000E020
:1008500010E00C171D0731F0C8010E94A0030F5FC4
:100860001F4FF7CFDF91CF911F910F910C9465012E
:10087000DF91CF911F910F910895CF930E944A026B
:100880000E947E02C82F882379F16AE271E08FE12D
:1008900092E00E94B20064E670E080E090E00E9486
:1008A00052060E9481036CE370E080E090E00E94B9
:1008B00052060E94020464E670E080E090E00E942C
:1008C000520660E371E08FE192E00E94B20062E3C1
:1008D00070E080E090E00E94520666E072E086EFF1
:1008E00091E00E94450D769A8C2FCF9108950F9339
:1008F0001F93CF93DF93CDB7DEB763970FB6F8940E
:10090000DEBF0FBECDBF67E571E08E010F5F1F4FE9
:10091000C8010E94450D66E072E0C8010E94310DD9
:10092000F80101900020E9F7AF0141505109401B47
:10093000510BB8018FE192E00E94C8008FE192E074
:100940000E94FC0663960FB6F894DEBF0FBECDBFC3
:10095000DF91CF911F910F910895EF92FF920F9326
:100960001F93CF93DF9300D000D000D0CDB7DEB778
:100970007C0164E571E08E010F5F1F4FC8010E948A
:10098000450DB701C8010E94310DF801019000200A
:10099000E9F7AF0141505109401B510BB8018FE1FC
:1009A00092E00E94C8008FE192E00E94FC06269629
:1009B0000FB6F894DEBF0FBECDBFDF91CF911F9170
:1009C0000F91FF90EF9008958091EC019091ED01CF
:1009D00080319105F1F040F484309105B9F0089729
:1009E00009F58CE391E020C080349105A9F028F44A
:1009F0008097C1F484E491E017C08038910579F0C4
:100A00008115914079F480E591E00EC088E391E092
:100A10000BC080E491E008C088E491E005C08CE45C
:100A200091E002C084E391E00C94AD04AF92BF92D8
:100A3000CF92DF92EF92FF920F931F93CF93DF93AA
:100A4000CDB7DEB7ADB6BEB68FE192E00E94FF062D
:100A50007C0101962DB73EB7281B390B0FB6F894D1
:100A60003EBF0FBE2DBF0DB71EB70F5F1F4F6801F2
:100A7000C601801B910B8E159F0544F48FE192E017
:100A80000E940F07F60181936F01F2CFF7FE02C0BB
:100A9000E12CF12CF801EE0DFF1D10826DE571E0E7
:100AA000C8010E943C0D21E0892B09F020E0822F33
:100AB0000FB6F894BEBE0FBEADBEDF91CF911F91B1
:100AC0000F91FF90EF90DF90CF90BF90AF9008957F
:100AD000CF938AE090E00E947A060E947E02C82F9F
:100AE0000E9416058823B1F01092800142E050E088
:100AF0006AE571E08FE192E00E94C8006AE070E070
:100B000080E090E00E94520621E030E03093E60160
:100B10002093E501CC23C9F00E944A020E94770489
:100B20006AE070E080E090E00E9452060E94E404D7
:100B30006AE070E080E090E00E94520681E090E080
:100B40009093E6018093E50112C01092E6011092A5
:100B5000E50142E050E068E671E08FE192E00E943A
:100B6000C8006AE070E080E090E00E945206809148
:100B7000E5019091E601009719F0019741F017C047
:100B800067E088EE93E00E94A502769810C08091FD
:100B9000800181110CC00E943D04811104C010929B
:100BA0008001779A04C081E080938001769ACF918A
:100BB00008951F920F920FB60F9211242F933F9317
:100BC0008F939F93AF93BF938091170290911802D8
:100BD000A0911902B0911A023091160223E0230F5E
:100BE0002D3720F40196A11DB11D05C026E8230F65
:100BF0000296A11DB11D20931602809317029093B7
:100C00001802A0931902B0931A0280911B029091CE
:100C10001C02A0911D02B0911E020196A11DB11DE2
:100C200080931B0290931C02A0931D02B0931E029E
:100C3000BF91AF919F918F913F912F910F900FBED8
:100C40000F901F9018952FB7F8946091170270912C
:100C500018028091190290911A022FBF08953FB790
:100C6000F89480911B0290911C02A0911D02B091FA
:100C70001E0226B5A89B05C02F3F19F00196A11DA5
:100C8000B11D3FBF6627782F892F9A2F620F711DE4
:100C9000811D911D42E0660F771F881F991F4A959D
:100CA000D1F70895CF92DF92EF92FF92CF93DF9327
:100CB0006B017C010E942F06EB01C114D104E104F9
:100CC000F10489F00E948F0C0E942F066C1B7D0B93
:100CD000683E734090F381E0C81AD108E108F1083A
:100CE000C851DC4FEACFDF91CF91FF90EF90DF90BA
:100CF000CF9008958230910538F0880F991F880FA2
:100D0000991F05970197F1F7089580E090E020E89A
:100D10000FB6F89420936100809361000FBE789421
:100D200084B5826084BD84B5816084BD85B58260F0
:100D300085BD85B5816085BDEEE6F0E0808181608E
:100D40008083E1E8F0E0108280818260808380818E
:100D500081608083E0E8F0E0808181608083E1EB66
:100D6000F0E0808184608083E0EBF0E0808181604E
:100D70008083E1E9F0E0808182608083808181600E
:100D80008083E0E9F0E0808181608083EAE7F0E041
:100D900080818460808380818260808380818160A3
:100DA00080838081806880830895CF93DF931F9232
:100DB000CDB7DEB76983DC01ED91FC910280F38150
:100DC000E02D41E050E0BE016F5F7F4F09950F902D
:100DD000DF91CF910895CF93DF93EC018C859D85B2
:100DE00097FF05C082E00E9446099D878C878C850D
:100DF0009D85DF91CF91089583E00C94D20BFC0187
:100E00008485958597FD06C082E00E94EE0890E0FB
:100E10000196089582E00E94EE0890E00895FC019A
:100E20008485958597FD05C02FEF3FEF3587248793
:100E3000089582E00C944609CF93DF93EC018091F2
:100E40000B01882331F083E00E94840918161906EB
:100E500034F081E090E09B838A8380E090E0DF9132
:100E6000CF910895FC0120812E5F20834AE350E05A
:100E700068EA70E080E80C94360AFC0121818081E8
:100E8000813A59F4213209F045C047E050E064E06E
:100E900071E080E00E94360A41C08132D9F52332E8
:100EA00089F4838190E0982F88273281832BA0E0FA
:100EB000B0E08093000190930101A0930201B093F0
:100EC00003010FC0203239F467E070E084E091E064
:100ED0000E94670A09C0223221F4828180930B01AB
:100EE00003C02D7F2032D1F480910401909105013F
:100EF000A0910601B0910701803B9440A105B10586
:100F000059F480910B0180FD07C08AEF90E00E94A8
:100F1000DA0704C080E008950E94DF0781E00895A9
:100F20002FEF3FEFFC01358724870895CF93C091C1
:100F30000B016AE070E080E090E00E94520681E0E0
:100F4000C11101C080E0CF91089510922202109249
:100F5000210288EE93E0A0E0B0E08093230290931A
:100F60002402A0932502B093260283E791E0909398
:100F7000200280931F028FEF9FEF90932C028093AB
:100F80002B0208958091E00081608093E000F89446
:100F90002AE088E190E00FB6F894A895809360006D
:100FA0000FBE2093600087E797E7909381028093BC
:100FB0008002FFCF90930D0180930C0108958FEF75
:100FC0009FEF90930D0180930C01089580910C0187
:100FD00090910D018F3F2FEF920749F00197909369
:100FE0000D0180930C01892B11F40E94C207089512
:100FF000615030F02091F100FC0120830196F8CF80
:10100000709884E680937E020895482F50E0FA019C
:10101000EE0FFF1FEB5EFE4F208131812115310560
:1010200011F420E430E060E02930310520F03695FD
:1010300027956F5FF9CFFA01E25FFE4F9081911122
:1010400001C092E08093E90081E08093EB00FA0117
:10105000ED5DFE4F80818093EC0080E1689F900100
:1010600011242260915034E0939FC0011124282B59
:101070002093ED00089540917202509173022091E7
:1010800070023091710242175307E4F49091E80026
:101090009570E1F39091E80092FD1FC08093F100FC
:1010A0008091720290917302019620911501309106
:1010B00016012150310982239323892B19F48EEFD5
:1010C0008093E80080917202909173020196909350
:1010D00073028093720281E0089580E00895CF92B8
:1010E000DF92EF92FF920F931F93CF93DF931F92A4
:1010F000CDB7DEB7082F162FF42E862F880F8E5F00
:1011000099830E943B0883E00E943B08E02EC02E9A
:101110009981D92E8C2D8E19811798F4F601F7FE3E
:1011200002C0849101C080810E943B08082F80E0AA
:101130000E943B088023FFEFCF1ADF0A8111EACF1C
:1011400001C081E00F90DF91CF911F910F91FF902F
:10115000EF90DF90CF9008958091D70081608093C9
:10116000D70080EA8093D80089B5837E886189BDE5
:1011700089B5826089BD09B400FEFDCF61E070E0F1
:1011800080E090E00E9452068091D8008F7C8061C0
:101190008093D8008091E000887F8093E0000895DC
:1011A000CF93DF931F92CDB7DEB71982CE010196A0
:1011B0000E9432070E94170DBE016F5F7F4F0E9491
:1011C000900C89810F90DF91CF9108952FB7FC018A
:1011D0002083F89467706093E9000895CF93DF93BC
:1011E0001F92CDB7DEB7682FCE0101960E94E608A8
:1011F0008091F20099819FBF0F90DF91CF91089568
:10120000FF920F931F93CF93DF9300D0CDB7DEB73C
:10121000F62E8A0190917D02992311F057FF03C0A9
:101220008FEF9FEF2BC0682FCE0101967A830E942B
:10123000E6088091F20090E0A8017A81801791077A
:101240000CF4AC01EF2DF72FF40E84E6FE1639F006
:10125000709880937E029091F1009193F7CF4115A1
:10126000510521F08091F200882321F089818FBF00
:10127000CA0104C08BE68093E800F8CF0F900F906E
:10128000DF91CF911F910F91FF900895CF93DF933E
:101290001F92CDB7DEB741E050E0BE016F5F7F4FD8
:1012A0000E940009019719F4898190E002C08FEF34
:1012B0009FEF0F90DF91CF9108951F93CF93DF930E
:1012C0001F92CDB7DEB7182F682FCE0101960E946E
:1012D000E6088091E80085FF0EC02091F2001770AB
:1012E000E12FF0E0EE0FFF1FEB5EFE4F808191815A
:1012F000821B910902C080E090E029812FBF0F90EE
:10130000DF91CF911F9108953F924F925F926F921C
:101310007F928F929F92AF92BF92CF92DF92EF9285
:10132000FF920F931F93CF93DF931F92CDB7DEB73A
:10133000382E7B01842E752E80917D028823A9F0A2
:10134000042F152F4AEF942E832D8072582E832D53
:101350008770C82ED12CF601EC58FD4F6F015AE36F
:10136000652EF32DF0744F2E11C08FEF9FEF60C0EC
:10137000832D0E945D095C01009761F49A94A9F3A2
:1013800061E070E080E090E00E94520601151105D6
:1013900079F744C0632DCE0101960E94E608809142
:1013A000E80085FF38C095010A151B050CF498016B
:1013B000021B130B552031F021503109C0F010925F
:1013C000F100FACF2E0D3F1DF70137FE08C0E217DE
:1013D000F30761F084918093F1003196F8CFE21722
:1013E000F30721F081918093F100F9CF7F01809183
:1013F000E80085FD04C081E00115110509F080E0D9
:10140000F60180838091E80085FF0FC0011511056A
:1014100011F441100AC089818FBFB8CF709884E65B
:1014200080937F02882D972D03C06092E800F3CF50
:101430000F90DF91CF911F910F91FF90EF90DF9070
:10144000CF90BF90AF909F908F907F906F905F9064
:101450004F903F9008951092E900109273021092FD
:10146000720290937102809370020895CF92DF927E
:10147000FF920F931F93CF93DF9300D0CDB7DEB7CA
:10148000F82E8A016B0101151105B1F0F601F7FE86
:1014900002C0849101C0808149835A830E943B0825
:1014A00001501109FFEFCF1ADF0A49815A818111DA
:1014B000EACF8FEF9FEF01C0CA010F900F90DF912D
:1014C000CF911F910F91FF90DF90CF9008951F93C0
:1014D000CF93DF931F92CDB7DEB7162F2091E80090
:1014E00022FFFCCF612F79830E94F8078BEF809356
:1014F000E800812F7981972F0F90DF91CF911F9175
:1015000008951F920F920FB60F921124DF92EF925F
:10151000FF920F931F932F933F934F935F936F937C
:101520007F938F939F93AF93BF93EF93FF93CF934B
:10153000DF93CDB7DEB76D97DEBFCDBF1092E90068
:101540008091E80083FF10C168E0CE0145960E94BB
:10155000F80782EF8093E8003D8937FF05C080914E
:10156000E80080FFFCCF03C08EEF8093E800832F5C
:10157000807609F0DDC02E894F89D88C21110CC0EE
:10158000303829F480917C028093F10002C01092DF
:10159000F1001092F100E1C0842F90E09D292130EC
:1015A00049F43111DAC0019709F0D7C080917C026B
:1015B0008D7F0AC0233059F43111CFC0019709F053
:1015C000CCC080917C02826080937C02C6C02530B2
:1015D00041F48091E80080FFFCCF40684093E30035
:1015E000BCC0263009F07FC0EB8CFC8C22E0D2120C
:1015F0002CC080E090E00E942B0A0E94D00899E065
:101600008E010F5F1F4FF801292F11922A95E9F7DC
:101610009983DA8291E09E8390EA98879AEF99877E
:101620002091720230917302275F3F4F3C832B83DE
:101630008D83C7010E942B0A49E050E0B80180E089
:101640000E94360A0E94D00888C0C7010E942B0A57
:101650000E94170DBE016B5E7F4F0E94B90C009770
:1016600019F00CF07AC07DC081E0D81661F1E3E09A
:10167000DE1277C08F89882349F1823029F440E84F
:1016800068E080E091E01CC0813029F440E86BE024
:1016900084EF90E015C0833009F063C00E94170DFD
:1016A0008E010F5F1F4FB8010E94D80CF801019006
:1016B0000020E9F73197E01BF10B40E06E2FC801E5
:1016C0000E946F0848C062EE70E002C069E071E0FD
:1016D0006115710509F445C0FB01449150E080E8B3
:1016E0000E94360A3AC02730E1F1283021F481E027
:1016F0008093F10032C0293081F5337091F504E216
:1017000011E091E0F80181918F01882341F0892F48
:101710009D8F0E9405089D8D9F5F973099F78EE7FA
:101720008093EA001092EA008F8980937D0215C0B1
:101730008B8D9C8D0E942B0A898D811105C0CE0155
:1017400045960E943D0707C00E94170DBE016B5EC3
:101750007F4F0E94F70C882321F08EEF8093E800E2
:1017600003C081E28093EB006D960FB6F894DEBF64
:101770000FBECDBFDF91CF91FF91EF91BF91AF91A0
:101780009F918F917F916F915F914F913F912F9199
:101790001F910F91FF90EF90DF900F900FBE0F9071
:1017A0001F9018958093E900E82FF0E0EC58FD4F6A
:1017B0008081882321F09091E80095FFFCCF9091E3
:1017C000F200911104C0811102C0108208958AE3D1
:1017D0008093E800FACF1F920F920FB60F92112458
:1017E0002F933F934F935F936F937F938F939F9329
:1017F000AF93BF93CF93EF93FF93C091E10080919C
:10180000E100837F8093E1008093E100C3FF08C083
:1018100080E00E94050810927D0288E08093F0002D
:10182000C2FF1BC00E94E60783E00E94D20B80919A
:101830007F02882339F080917F02815080937F025C
:10184000882389F180917E02882339F080917E027D
:10185000815080937E02882341F1C4FF10C08091A3
:10186000E2008E7E81608093E2008091E1008F7EB5
:101870008093E10080917B028E7E806111C0C0FF69
:1018800016C08091E2008E7E80618093E20080919C
:10189000E1008E7E8093E10080917B028E7E8160EC
:1018A00080937B0204C0709ACDCF709AD6CFFF91FF
:1018B000EF91CF91BF91AF919F918F917F916F9158
:1018C0005F914F913F912F910F900FBE0F901F90FE
:1018D000189510927D0210927C0210927B020E9459
:1018E000AC08E1EEF0E080818E7E80838DE0809315
:1018F000E200689A089508950E9485060E947B0C74
:101900008FE692E00E94690C0E940003C0E0D0E0E4
:101910000E9468052097E1F30E940000F9CF089526
:10192000EF92FF920F931F93CF93DF937B01FC0104
:10193000C281D38100E010E0209781F0E881F98135
:101940000280F381E02DB701CE01099597FD08C013
:10195000080F191F0D84DE85C02DEECFC80102C00F
:101960008FEF9FEFDF91CF911F910F91FF90EF903D
:1019700008950F931F93CF93DF938B01FC01C281D6
:10198000D381209771F0E881F9810480F581E02D01
:10199000B801CE010995009731F40D84DE85C02D84
:1019A000F0CF80E090E0DF91CF911F910F910895EB
:1019B0000F931F93CF93DF938B01FC01C281D381DF
:1019C000209771F0E881F9810680F781E02DB80158
:1019D000CE010995080F111D0D84DE85C02DF0CFB5
:1019E000F8011082DF91CF911F910F9108950F930D
:1019F0001F93CF93DF938B01FC01C281D38120978A
:101A000071F0E881F9810190F081E02DB801CE01FB
:101A10000995811106C00D84DE85C02DF0CF80E0D0
:101A200001C081E0DF91CF911F910F9108958091C6
:101A3000840281110DC082E08093800284E0809353
:101A40008102109283021092820281E080938402CC
:101A500080E892E00895EE0FFF1F0590F491E02DCD
:101A60000994FB01DC010D900020E9F7119701902A
:101A70000D920020E1F70895FB01DC018D910190AA
:101A800080190110D9F3990B0895FB01DC01019035
:0C1A90000D920020E1F70895F894FFCFBC
:101A9C00FFFFFFFF00E1000000000000FFFF01015D
:101AAC000202000000100010004000400000000086
:101ABC0000000000C180810000007374617274002A
:101ACC00656E640030303200303034003030380015
:101ADC003031360030333200303634003132380099
:101AEC00323536007262006E6D00767300736400DE
:101AFC0073726D00726F6D006E72006400000000F6
:101B0C00000000D5061C07FF060F07EB06FC0600BD
:00000001FF
